S00C0000535230342E737265630F
S11300000C9434000C9451000C9451000C94510045
S11300100C9451000C9451000C9451000C94510018
S11300200C9451000C9451000C94B1000C940001F8
S11300300C9422010C9451000C9451000C94510026
S11300400C9451000C9451000C9451000C945100E8
S11300500C9451000C9451000C9451000C945100D8
S11300600C9451000C94510011241FBECFEFD8E022
S1130070DEBFCDBF11E0A0E0B1E0E6E8F2E002C0EF
S113008005900D92A230B107D9F721E0A2E0B1E0CA
S113009001C01D92A730B207E1F70E9453000C94EF
S11300A041010C940000CF93DF9300D0CDB7DEB7AD
S11300B084E290E022E0FC01208381E890E021E8E2
S11300C030E0F90120812860FC01208381E890E080
S11300D021E830E0F90120812064FC01208384E8D8
S11300E090E0FC011182108281E890E021E830E088
S11300F0F90120812360FC0120838FE690E02FE644
S113010030E0F90120812662FC01208388E890E038
S113011020EA3AE3FC01318320838AE890E028E076
S113012030E0FC013183208378948091020188239C
S1130130E1F3209103013091040180910501909134
S11301400601A901481B590BCA019A83898381E8D6
S113015090E021E830E0F90120812064FC01208353
S1130160E4CF1F920F9200905F000F9211242F93FF
S11301703F938F939F93EF93FF93CF93DF93CDB7E9
S1130180DEB7809100018823E9F084E890E0FC0167
S11301908081918190930601809305011092000162
S11301A081E890E0FC01808181E890E0FC0110820C
S11301B081E890E021E830E0F90120812360FC012E
S11301C020830FC084E890E0FC01808191819093AA
S11301D004018093030181E08093000181E0809316
S11301E002010000DF91CF91FF91EF919F918F91D8
S11301F03F912F910F9000925F000F901F901895E0
S11302001F920F9200905F000F9211242F938F93EF
S11302109F93EF93FF93CF93DF93CDB7DEB785E240
S113022090E022E0FC0120830000DF91CF91FF9158
S1130230EF919F918F912F910F9000925F000F90FB
S11302401F9018951F920F9200905F000F92112437
S11302508F939F93EF93FF93CF93DF93CDB7DEB745
S113026085E290E0FC0110820000DF91CF91FF91C4
S1130270EF919F918F910F9000925F000F901F90CC
S10902801895F894FFCF6D
S1050286010071
S9030000FC
